{
  "contractName": "Marketplace",
  "abi": [
    {
      "constant": true,
      "inputs": [],
      "name": "name",
      "outputs": [
        {
          "name": "",
          "type": "string"
        }
      ],
      "payable": false,
      "stateMutability": "view",
      "type": "function"
    },
    {
      "constant": true,
      "inputs": [
        {
          "name": "",
          "type": "uint256"
        }
      ],
      "name": "riders",
      "outputs": [
        {
          "name": "id",
          "type": "uint256"
        },
        {
          "name": "route",
          "type": "string"
        },
        {
          "name": "fare",
          "type": "uint256"
        },
        {
          "name": "owner",
          "type": "address"
        },
        {
          "name": "rideCompleted",
          "type": "bool"
        }
      ],
      "payable": false,
      "stateMutability": "view",
      "type": "function"
    },
    {
      "constant": true,
      "inputs": [],
      "name": "ride_count",
      "outputs": [
        {
          "name": "",
          "type": "uint256"
        }
      ],
      "payable": false,
      "stateMutability": "view",
      "type": "function"
    },
    {
      "inputs": [],
      "payable": false,
      "stateMutability": "nonpayable",
      "type": "constructor"
    },
    {
      "anonymous": false,
      "inputs": [
        {
          "indexed": false,
          "name": "id",
          "type": "uint256"
        },
        {
          "indexed": false,
          "name": "route",
          "type": "string"
        },
        {
          "indexed": false,
          "name": "fare",
          "type": "uint256"
        },
        {
          "indexed": false,
          "name": "owner",
          "type": "address"
        },
        {
          "indexed": false,
          "name": "rideCompleted",
          "type": "bool"
        }
      ],
      "name": "rideAdded",
      "type": "event"
    },
    {
      "anonymous": false,
      "inputs": [
        {
          "indexed": false,
          "name": "id",
          "type": "uint256"
        },
        {
          "indexed": false,
          "name": "route",
          "type": "string"
        },
        {
          "indexed": false,
          "name": "fare",
          "type": "uint256"
        },
        {
          "indexed": false,
          "name": "owner",
          "type": "address"
        },
        {
          "indexed": false,
          "name": "rideCompleted",
          "type": "bool"
        }
      ],
      "name": "rideCompleted",
      "type": "event"
    },
    {
      "constant": false,
      "inputs": [
        {
          "name": "_name",
          "type": "string"
        },
        {
          "name": "_price",
          "type": "uint256"
        }
      ],
      "name": "createRide",
      "outputs": [],
      "payable": false,
      "stateMutability": "nonpayable",
      "type": "function"
    },
    {
      "constant": false,
      "inputs": [
        {
          "name": "_id",
          "type": "uint256"
        }
      ],
      "name": "purchaseProduct",
      "outputs": [],
      "payable": true,
      "stateMutability": "payable",
      "type": "function"
    }
  ],
  "bytecode": "0x6080604052600060015534801561001557600080fd5b506040805190810160405280600981526020017f726964657368617265000000000000000000000000000000000000000000000081525060009080519060200190610061929190610067565b5061010c565b828054600181600116156101000203166002900490600052602060002090601f016020900481019282601f106100a857805160ff19168380011785556100d6565b828001600101855582156100d6579182015b828111156100d55782518255916020019190600101906100ba565b5b5090506100e391906100e7565b5090565b61010991905b808211156101055760008160009055506001016100ed565b5090565b90565b610c148061011b6000396000f3fe60806040526004361061006d576000357c0100000000000000000000000000000000000000000000000000000000900463ffffffff16806306fdde03146100725780631d61a8391461010257806338e76a03146101d45780633ec37e901461020257806343212a8514610302575b600080fd5b34801561007e57600080fd5b5061008761032d565b6040518080602001828103825283818151815260200191508051906020019080838360005b838110156100c75780820151818401526020810190506100ac565b50505050905090810190601f1680156100f45780820380516001836020036101000a031916815260200191505b509250505060405180910390f35b34801561010e57600080fd5b506101d26004803603604081101561012557600080fd5b810190808035906020019064010000000081111561014257600080fd5b82018360208201111561015457600080fd5b8035906020019184600183028401116401000000008311171561017657600080fd5b91908080601f016020809104026020016040519081016040528093929190818152602001838380828437600081840152601f19601f820116905080830192505050505050509192919290803590602001909291905050506103cb565b005b610200600480360360208110156101ea57600080fd5b81019080803590602001909291905050506105e2565b005b34801561020e57600080fd5b5061023b6004803603602081101561022557600080fd5b81019080803590602001909291905050506109fa565b60405180868152602001806020018581526020018473ffffffffffffffffffffffffffffffffffffffff1673ffffffffffffffffffffffffffffffffffffffff16815260200183151515158152602001828103825286818151815260200191508051906020019080838360005b838110156102c35780820151818401526020810190506102a8565b50505050905090810190601f1680156102f05780820380516001836020036101000a031916815260200191505b50965050505050505060405180910390f35b34801561030e57600080fd5b50610317610af5565b6040518082815260200191505060405180910390f35b60008054600181600116156101000203166002900480601f0160208091040260200160405190810160405280929190818152602001828054600181600116156101000203166002900480156103c35780601f10610398576101008083540402835291602001916103c3565b820191906000526020600020905b8154815290600101906020018083116103a657829003601f168201915b505050505081565b600082511115156103db57600080fd5b6000811115156103ea57600080fd5b60016000815480929190600101919050555060a06040519081016040528060015481526020018381526020018281526020013373ffffffffffffffffffffffffffffffffffffffff1681526020016000151581525060026000600154815260200190815260200160002060008201518160000155602082015181600101908051906020019061047a929190610afb565b506040820151816002015560608201518160030160006101000a81548173ffffffffffffffffffffffffffffffffffffffff021916908373ffffffffffffffffffffffffffffffffffffffff16021790555060808201518160030160146101000a81548160ff0219169083151502179055509050507f246821e24b5ae7fa4619ef65a18b4e0a25c2746456a88f5015d4ce93a2f09013600154838333600060405180868152602001806020018581526020018473ffffffffffffffffffffffffffffffffffffffff1673ffffffffffffffffffffffffffffffffffffffff16815260200183151515158152602001828103825286818151815260200191508051906020019080838360005b838110156105a0578082015181840152602081019050610585565b50505050905090810190601f1680156105cd5780820380516001836020036101000a031916815260200191505b50965050505050505060405180910390a15050565b6105ea610b7b565b6002600083815260200190815260200160002060a0604051908101604052908160008201548152602001600182018054600181600116156101000203166002900480601f0160208091040260200160405190810160405280929190818152602001828054600181600116156101000203166002900480156106ac5780601f10610681576101008083540402835291602001916106ac565b820191906000526020600020905b81548152906001019060200180831161068f57829003601f168201915b50505050508152602001600282015481526020016003820160009054906101000a900473ffffffffffffffffffffffffffffffffffffffff1673ffffffffffffffffffffffffffffffffffffffff1673ffffffffffffffffffffffffffffffffffffffff1681526020016003820160149054906101000a900460ff1615151515815250509050600081606001519050600082600001511180156107555750600154826000015111155b151561076057600080fd5b8160400151341015151561077357600080fd5b816080015115151561078457600080fd5b3373ffffffffffffffffffffffffffffffffffffffff168173ffffffffffffffffffffffffffffffffffffffff16141515156107bf57600080fd5b33826060019073ffffffffffffffffffffffffffffffffffffffff16908173ffffffffffffffffffffffffffffffffffffffff168152505060018260800190151590811515815250508160026000858152602001908152602001600020600082015181600001556020820151816001019080519060200190610842929190610afb565b506040820151816002015560608201518160030160006101000a81548173ffffffffffffffffffffffffffffffffffffffff021916908373ffffffffffffffffffffffffffffffffffffffff16021790555060808201518160030160146101000a81548160ff0219169083151502179055509050508073ffffffffffffffffffffffffffffffffffffffff166108fc349081150290604051600060405180830381858888f193505050501580156108fd573d6000803e3d6000fd5b507fbb25e8db42b4c5faa367f6eef08068cf43840480236e06121d7ef1fddccf648f6001548360200151846040015133600160405180868152602001806020018581526020018473ffffffffffffffffffffffffffffffffffffffff1673ffffffffffffffffffffffffffffffffffffffff16815260200183151515158152602001828103825286818151815260200191508051906020019080838360005b838110156109b757808201518184015260208101905061099c565b50505050905090810190601f1680156109e45780820380516001836020036101000a031916815260200191505b50965050505050505060405180910390a1505050565b6002602052806000526040600020600091509050806000015490806001018054600181600116156101000203166002900480601f016020809104026020016040519081016040528092919081815260200182805460018160011615610100020316600290048015610aac5780601f10610a8157610100808354040283529160200191610aac565b820191906000526020600020905b815481529060010190602001808311610a8f57829003601f168201915b5050505050908060020154908060030160009054906101000a900473ffffffffffffffffffffffffffffffffffffffff16908060030160149054906101000a900460ff16905085565b60015481565b828054600181600116156101000203166002900490600052602060002090601f016020900481019282601f10610b3c57805160ff1916838001178555610b6a565b82800160010185558215610b6a579182015b82811115610b69578251825591602001919060010190610b4e565b5b509050610b779190610bc3565b5090565b60a060405190810160405280600081526020016060815260200160008152602001600073ffffffffffffffffffffffffffffffffffffffff1681526020016000151581525090565b610be591905b80821115610be1576000816000905550600101610bc9565b5090565b9056fea165627a7a723058209080591f2f3ca097a535286ec6584b9c15de7bcbaaca15d0c7e149da7a79f3460029",
  "source": "pragma solidity ^0.5.0;\n\ncontract Marketplace {\n    string public name;\n    uint public ride_count = 0;\n    mapping(uint => ride) public riders;\n\n    struct ride {\n        uint id;\n        string route;\n        uint fare;\n        address payable owner;\n        bool rideCompleted;\n    }\n\n    event rideAdded(\n        uint id,\n        string route,\n        uint fare,\n        address payable owner,\n        bool rideCompleted\n    );\n\n    event rideCompleted(\n        uint id,\n        string route,\n        uint fare,\n        address payable owner,\n        bool rideCompleted\n    );\n\n    constructor() public {\n        name = \"rideshare\";\n    }\n\n    function createRide(string memory _name, uint _price) public {\n        require(bytes(_name).length > 0);\n\n        require(_price > 0);\n\n        ride_count ++;\n\n        riders[ride_count] = ride(ride_count, _name, _price, msg.sender, false);\n\n        emit rideAdded(ride_count, _name, _price, msg.sender, false);\n    }\n\n    function purchaseProduct(uint _id) public payable {\n        // Fetch the product\n        ride memory _ride = riders[_id];\n        // Fetch the owner\n        address payable _rider = _ride.owner;\n        // Make sure the product has a valid id\n        require(_ride.id > 0 && _ride.id <= ride_count);\n        // Require that there is enough Ether in the transaction\n        require(msg.value >= _ride.fare);\n        // Require that the product has not been rideCompleted already\n        require(!_ride.rideCompleted);\n        // Require that the buyer is not the seller\n        require(_rider != msg.sender);\n        // Transfer ownership to the buyer\n        _ride.owner = msg.sender;\n        // Mark as rideCompleted\n        _ride.rideCompleted = true;\n        // Update the product\n        riders[_id] = _ride;\n        // Pay the seller by sending them Ether\n        address(_rider).transfer(msg.value);\n        // Trigger an event\n        emit rideCompleted(ride_count, _ride.route, _ride.fare, msg.sender, true);\n    }\n}\n",
  "sourcePath": "/Users/ashwinnambiar/Visual Studio Code/rideshare-master/src/contracts/rideshare.sol",
  "compiler": {
    "name": "solc",
    "version": "0.5.0+commit.1d4f565a.Emscripten.clang"
  },
  "schemaVersion": "3.0.2",
  "updatedAt": "2022-01-22T02:16:38.181Z",
  "devdoc": {
    "methods": {}
  },
  "userdoc": {
    "methods": {}
  }
}