{
  "contractName": "rideshare",
  "abi": [
    {
      "constant": true,
      "inputs": [],
      "name": "name",
      "outputs": [
        {
          "name": "",
          "type": "string"
        }
      ],
      "payable": false,
      "stateMutability": "view",
      "type": "function",
      "signature": "0x06fdde03"
    },
    {
      "constant": true,
      "inputs": [
        {
          "name": "",
          "type": "uint256"
        }
      ],
      "name": "riders",
      "outputs": [
        {
          "name": "id",
          "type": "uint256"
        },
        {
          "name": "name",
          "type": "string"
        },
        {
          "name": "from",
          "type": "string"
        },
        {
          "name": "to",
          "type": "string"
        },
        {
          "name": "fare",
          "type": "uint256"
        },
        {
          "name": "seats",
          "type": "uint256"
        },
        {
          "name": "owner",
          "type": "address"
        }
      ],
      "payable": false,
      "stateMutability": "view",
      "type": "function",
      "signature": "0x3ec37e90"
    },
    {
      "constant": true,
      "inputs": [],
      "name": "rideCount",
      "outputs": [
        {
          "name": "",
          "type": "uint256"
        }
      ],
      "payable": false,
      "stateMutability": "view",
      "type": "function",
      "signature": "0xb47c1883"
    },
    {
      "inputs": [],
      "payable": false,
      "stateMutability": "nonpayable",
      "type": "constructor",
      "signature": "constructor"
    },
    {
      "anonymous": false,
      "inputs": [
        {
          "indexed": false,
          "name": "id",
          "type": "uint256"
        },
        {
          "indexed": false,
          "name": "name",
          "type": "string"
        },
        {
          "indexed": false,
          "name": "from",
          "type": "string"
        },
        {
          "indexed": false,
          "name": "to",
          "type": "string"
        },
        {
          "indexed": false,
          "name": "fare",
          "type": "uint256"
        },
        {
          "indexed": false,
          "name": "seats",
          "type": "uint256"
        },
        {
          "indexed": false,
          "name": "owner",
          "type": "address"
        }
      ],
      "name": "rideAdded",
      "type": "event",
      "signature": "0x7f2c3f1b69f4e134edfb43a07e021b97d920f85acccb0e3861b48d924a5f78aa"
    },
    {
      "anonymous": false,
      "inputs": [
        {
          "indexed": false,
          "name": "id",
          "type": "uint256"
        },
        {
          "indexed": false,
          "name": "from",
          "type": "string"
        },
        {
          "indexed": false,
          "name": "to",
          "type": "string"
        },
        {
          "indexed": false,
          "name": "fare",
          "type": "uint256"
        },
        {
          "indexed": false,
          "name": "seats",
          "type": "uint256"
        },
        {
          "indexed": false,
          "name": "owner",
          "type": "address"
        }
      ],
      "name": "rideCompleted",
      "type": "event",
      "signature": "0x7c88787eafa0735bb9e2d35f47605f0ccfd06afb09ccc56d639f1b84499813c1"
    },
    {
      "constant": false,
      "inputs": [
        {
          "name": "_name",
          "type": "string"
        },
        {
          "name": "_from",
          "type": "string"
        },
        {
          "name": "_to",
          "type": "string"
        },
        {
          "name": "_price",
          "type": "uint256"
        },
        {
          "name": "_seats",
          "type": "uint256"
        }
      ],
      "name": "createRide",
      "outputs": [],
      "payable": false,
      "stateMutability": "nonpayable",
      "type": "function",
      "signature": "0xb07b0297"
    },
    {
      "constant": false,
      "inputs": [
        {
          "name": "_id",
          "type": "uint256"
        }
      ],
      "name": "completeRide",
      "outputs": [],
      "payable": true,
      "stateMutability": "payable",
      "type": "function",
      "signature": "0xc416dd0b"
    }
  ],
  "bytecode": "0x608060405260006001553480156200001657600080fd5b506040805190810160405280600981526020017f726964657368617265000000000000000000000000000000000000000000000081525060009080519060200190620000649291906200006b565b506200011a565b828054600181600116156101000203166002900490600052602060002090601f016020900481019282601f10620000ae57805160ff1916838001178555620000df565b82800160010185558215620000df579182015b82811115620000de578251825591602001919060010190620000c1565b5b509050620000ee9190620000f2565b5090565b6200011791905b8082111562000113576000816000905550600101620000f9565b5090565b90565b6111fe806200012a6000396000f3fe60806040526004361061006d576000357c0100000000000000000000000000000000000000000000000000000000900463ffffffff16806306fdde03146100725780633ec37e9014610102578063b07b0297146102d6578063b47c1883146104e0578063c416dd0b1461050b575b600080fd5b34801561007e57600080fd5b50610087610539565b6040518080602001828103825283818151815260200191508051906020019080838360005b838110156100c75780820151818401526020810190506100ac565b50505050905090810190601f1680156100f45780820380516001836020036101000a031916815260200191505b509250505060405180910390f35b34801561010e57600080fd5b5061013b6004803603602081101561012557600080fd5b81019080803590602001909291905050506105d7565b604051808881526020018060200180602001806020018781526020018681526020018573ffffffffffffffffffffffffffffffffffffffff1673ffffffffffffffffffffffffffffffffffffffff16815260200184810384528a818151815260200191508051906020019080838360005b838110156101c75780820151818401526020810190506101ac565b50505050905090810190601f1680156101f45780820380516001836020036101000a031916815260200191505b50848103835289818151815260200191508051906020019080838360005b8381101561022d578082015181840152602081019050610212565b50505050905090810190601f16801561025a5780820380516001836020036101000a031916815260200191505b50848103825288818151815260200191508051906020019080838360005b83811015610293578082015181840152602081019050610278565b50505050905090810190601f1680156102c05780820380516001836020036101000a031916815260200191505b509a505050505050505050505060405180910390f35b3480156102e257600080fd5b506104de600480360360a08110156102f957600080fd5b810190808035906020019064010000000081111561031657600080fd5b82018360208201111561032857600080fd5b8035906020019184600183028401116401000000008311171561034a57600080fd5b91908080601f016020809104026020016040519081016040528093929190818152602001838380828437600081840152601f19601f820116905080830192505050505050509192919290803590602001906401000000008111156103ad57600080fd5b8201836020820111156103bf57600080fd5b803590602001918460018302840111640100000000831117156103e157600080fd5b91908080601f016020809104026020016040519081016040528093929190818152602001838380828437600081840152601f19601f8201169050808301925050505050505091929192908035906020019064010000000081111561044457600080fd5b82018360208201111561045657600080fd5b8035906020019184600183028401116401000000008311171561047857600080fd5b91908080601f016020809104026020016040519081016040528093929190818152602001838380828437600081840152601f19601f8201169050808301925050505050505091929192908035906020019092919080359060200190929190505050610801565b005b3480156104ec57600080fd5b506104f5610b3d565b6040518082815260200191505060405180910390f35b6105376004803603602081101561052157600080fd5b8101908080359060200190929190505050610b43565b005b60008054600181600116156101000203166002900480601f0160208091040260200160405190810160405280929190818152602001828054600181600116156101000203166002900480156105cf5780601f106105a4576101008083540402835291602001916105cf565b820191906000526020600020905b8154815290600101906020018083116105b257829003601f168201915b505050505081565b6002602052806000526040600020600091509050806000015490806001018054600181600116156101000203166002900480601f0160208091040260200160405190810160405280929190818152602001828054600181600116156101000203166002900480156106895780601f1061065e57610100808354040283529160200191610689565b820191906000526020600020905b81548152906001019060200180831161066c57829003601f168201915b505050505090806002018054600181600116156101000203166002900480601f0160208091040260200160405190810160405280929190818152602001828054600181600116156101000203166002900480156107275780601f106106fc57610100808354040283529160200191610727565b820191906000526020600020905b81548152906001019060200180831161070a57829003601f168201915b505050505090806003018054600181600116156101000203166002900480601f0160208091040260200160405190810160405280929190818152602001828054600181600116156101000203166002900480156107c55780601f1061079a576101008083540402835291602001916107c5565b820191906000526020600020905b8154815290600101906020018083116107a857829003601f168201915b5050505050908060040154908060050154908060060160009054906101000a900473ffffffffffffffffffffffffffffffffffffffff16905087565b6000855111151561081157600080fd5b6000845111151561082157600080fd5b6000835111151561083157600080fd5b60008211151561084057600080fd5b60016000815480929190600101919050555060e06040519081016040528060015481526020018681526020018581526020018481526020018381526020018281526020013373ffffffffffffffffffffffffffffffffffffffff168152506002600060015481526020019081526020016000206000820151816000015560208201518160010190805190602001906108d99291906110d9565b5060408201518160020190805190602001906108f69291906110d9565b5060608201518160030190805190602001906109139291906110d9565b506080820151816004015560a0820151816005015560c08201518160060160006101000a81548173ffffffffffffffffffffffffffffffffffffffff021916908373ffffffffffffffffffffffffffffffffffffffff1602179055509050507f7f2c3f1b69f4e134edfb43a07e021b97d920f85acccb0e3861b48d924a5f78aa600154868686868633604051808881526020018060200180602001806020018781526020018681526020018573ffffffffffffffffffffffffffffffffffffffff1673ffffffffffffffffffffffffffffffffffffffff16815260200184810384528a818151815260200191508051906020019080838360005b83811015610a28578082015181840152602081019050610a0d565b50505050905090810190601f168015610a555780820380516001836020036101000a031916815260200191505b50848103835289818151815260200191508051906020019080838360005b83811015610a8e578082015181840152602081019050610a73565b50505050905090810190601f168015610abb5780820380516001836020036101000a031916815260200191505b50848103825288818151815260200191508051906020019080838360005b83811015610af4578082015181840152602081019050610ad9565b50505050905090810190601f168015610b215780820380516001836020036101000a031916815260200191505b509a505050505050505050505060405180910390a15050505050565b60015481565b610b4b611159565b6002600083815260200190815260200160002060e0604051908101604052908160008201548152602001600182018054600181600116156101000203166002900480601f016020809104026020016040519081016040528092919081815260200182805460018160011615610100020316600290048015610c0d5780601f10610be257610100808354040283529160200191610c0d565b820191906000526020600020905b815481529060010190602001808311610bf057829003601f168201915b50505050508152602001600282018054600181600116156101000203166002900480601f016020809104026020016040519081016040528092919081815260200182805460018160011615610100020316600290048015610caf5780601f10610c8457610100808354040283529160200191610caf565b820191906000526020600020905b815481529060010190602001808311610c9257829003601f168201915b50505050508152602001600382018054600181600116156101000203166002900480601f016020809104026020016040519081016040528092919081815260200182805460018160011615610100020316600290048015610d515780601f10610d2657610100808354040283529160200191610d51565b820191906000526020600020905b815481529060010190602001808311610d3457829003601f168201915b5050505050815260200160048201548152602001600582015481526020016006820160009054906101000a900473ffffffffffffffffffffffffffffffffffffffff1673ffffffffffffffffffffffffffffffffffffffff1673ffffffffffffffffffffffffffffffffffffffff1681525050905060008160c00151905060008260000151118015610de95750600154826000015111155b1515610df457600080fd5b81608001513410151515610e0757600080fd5b3373ffffffffffffffffffffffffffffffffffffffff168173ffffffffffffffffffffffffffffffffffffffff1614151515610e4257600080fd5b60018260a00151038260a00181815250508160026000858152602001908152602001600020600082015181600001556020820151816001019080519060200190610e8d9291906110d9565b506040820151816002019080519060200190610eaa9291906110d9565b506060820151816003019080519060200190610ec79291906110d9565b506080820151816004015560a0820151816005015560c08201518160060160006101000a81548173ffffffffffffffffffffffffffffffffffffffff021916908373ffffffffffffffffffffffffffffffffffffffff1602179055509050508073ffffffffffffffffffffffffffffffffffffffff166108fc349081150290604051600060405180830381858888f19350505050158015610f6c573d6000803e3d6000fd5b507f7c88787eafa0735bb9e2d35f47605f0ccfd06afb09ccc56d639f1b84499813c16001548360400151846060015185608001518660a00151336040518087815260200180602001806020018681526020018581526020018473ffffffffffffffffffffffffffffffffffffffff1673ffffffffffffffffffffffffffffffffffffffff168152602001838103835288818151815260200191508051906020019080838360005b8381101561102e578082015181840152602081019050611013565b50505050905090810190601f16801561105b5780820380516001836020036101000a031916815260200191505b50838103825287818151815260200191508051906020019080838360005b83811015611094578082015181840152602081019050611079565b50505050905090810190601f1680156110c15780820380516001836020036101000a031916815260200191505b509850505050505050505060405180910390a1505050565b828054600181600116156101000203166002900490600052602060002090601f016020900481019282601f1061111a57805160ff1916838001178555611148565b82800160010185558215611148579182015b8281111561114757825182559160200191906001019061112c565b5b50905061115591906111ad565b5090565b60e060405190810160405280600081526020016060815260200160608152602001606081526020016000815260200160008152602001600073ffffffffffffffffffffffffffffffffffffffff1681525090565b6111cf91905b808211156111cb5760008160009055506001016111b3565b5090565b9056fea165627a7a7230582056d13ffeef588b2b7301172e408e7990fb5b22c84f2172cb4ee2d7092d1b56af0029",
  "source": "pragma solidity ^0.5.0;\n\ncontract rideshare {\n    string public name;\n    uint public rideCount = 0;\n    mapping(uint => ride) public riders;\n\n    struct ride {\n        uint id;\n        string name;\n        string from;\n        string to;\n        uint fare;\n        uint seats;\n        address payable owner;\n    }\n\n    event rideAdded(\n        uint id,\n        string name,\n        string from,\n        string to,\n        uint fare,\n        uint seats,\n        address payable owner\n    );\n\n    event rideCompleted(\n        uint id,\n        string from,\n        string to, \n        uint fare,\n        uint seats,\n        address payable owner\n    );\n\n    constructor() public {\n        name = \"rideshare\";\n    }\n\n    function createRide(string memory _name, string memory _from, string memory _to, uint _price, uint _seats) public {\n        require(bytes(_name).length > 0);\n        require(bytes(_from).length > 0);\n        require(bytes(_to).length > 0);\n        require(_price > 0);\n        rideCount ++;\n        riders[rideCount] = ride(rideCount,_name, _from, _to, _price, _seats, msg.sender);\n        emit rideAdded(rideCount,_name, _from, _to, _price, _seats, msg.sender);\n    }\n\n    function completeRide(uint _id) public payable {\n        // find the product\n        ride memory _ride = riders[_id];\n        // find the owner\n        address payable _rider = _ride.owner;\n        //validate id\n        require(_ride.id > 0 && _ride.id <= rideCount);\n        // check balance amt \n        require(msg.value >= _ride.fare);\n        //rider cannot purchase the ride\n        require(_rider != msg.sender);\n        //update seats\n        _ride.seats = _ride.seats-1;\n        // Update the ride\n        riders[_id] = _ride;\n        //pay the rider\n        address(_rider).transfer(msg.value);\n        // trigger the event\n        emit rideCompleted(rideCount, _ride.from, _ride.to, _ride.fare, _ride.seats, msg.sender);\n    }\n}",
  "sourcePath": "/Users/ashwinnambiar/Desktop/College/Final Year BlockChain/P2P_Rideshare/src/contracts/rideshare.sol",
  "compiler": {
    "name": "solc",
    "version": "0.5.0+commit.1d4f565a.Emscripten.clang"
  },
  "schemaVersion": "3.0.2",
  "updatedAt": "2022-02-28T03:29:45.745Z",
  "devdoc": {
    "methods": {}
  },
  "userdoc": {
    "methods": {}
  }
}