{
  "contractName": "rideshare",
  "abi": [
    {
      "constant": true,
      "inputs": [],
      "name": "name",
      "outputs": [
        {
          "name": "",
          "type": "string"
        }
      ],
      "payable": false,
      "stateMutability": "view",
      "type": "function",
      "signature": "0x06fdde03"
    },
    {
      "constant": true,
      "inputs": [
        {
          "name": "",
          "type": "uint256"
        }
      ],
      "name": "riders",
      "outputs": [
        {
          "name": "id",
          "type": "uint256"
        },
        {
          "name": "from",
          "type": "string"
        },
        {
          "name": "to",
          "type": "string"
        },
        {
          "name": "fare",
          "type": "uint256"
        },
        {
          "name": "seats",
          "type": "uint256"
        },
        {
          "name": "owner",
          "type": "address"
        }
      ],
      "payable": false,
      "stateMutability": "view",
      "type": "function",
      "signature": "0x3ec37e90"
    },
    {
      "constant": true,
      "inputs": [],
      "name": "rideCount",
      "outputs": [
        {
          "name": "",
          "type": "uint256"
        }
      ],
      "payable": false,
      "stateMutability": "view",
      "type": "function",
      "signature": "0xb47c1883"
    },
    {
      "inputs": [],
      "payable": false,
      "stateMutability": "nonpayable",
      "type": "constructor",
      "signature": "constructor"
    },
    {
      "anonymous": false,
      "inputs": [
        {
          "indexed": false,
          "name": "id",
          "type": "uint256"
        },
        {
          "indexed": false,
          "name": "from",
          "type": "string"
        },
        {
          "indexed": false,
          "name": "to",
          "type": "string"
        },
        {
          "indexed": false,
          "name": "fare",
          "type": "uint256"
        },
        {
          "indexed": false,
          "name": "seats",
          "type": "uint256"
        },
        {
          "indexed": false,
          "name": "owner",
          "type": "address"
        }
      ],
      "name": "rideAdded",
      "type": "event",
      "signature": "0x7dc1e5a228b4ce6e2b9e452f3ae88b7edd90be850ae05201728f1737f342fdc3"
    },
    {
      "anonymous": false,
      "inputs": [
        {
          "indexed": false,
          "name": "id",
          "type": "uint256"
        },
        {
          "indexed": false,
          "name": "from",
          "type": "string"
        },
        {
          "indexed": false,
          "name": "to",
          "type": "string"
        },
        {
          "indexed": false,
          "name": "fare",
          "type": "uint256"
        },
        {
          "indexed": false,
          "name": "seats",
          "type": "uint256"
        },
        {
          "indexed": false,
          "name": "owner",
          "type": "address"
        }
      ],
      "name": "rideCompleted",
      "type": "event",
      "signature": "0x7c88787eafa0735bb9e2d35f47605f0ccfd06afb09ccc56d639f1b84499813c1"
    },
    {
      "constant": false,
      "inputs": [
        {
          "name": "_from",
          "type": "string"
        },
        {
          "name": "_to",
          "type": "string"
        },
        {
          "name": "_price",
          "type": "uint256"
        },
        {
          "name": "_seats",
          "type": "uint256"
        }
      ],
      "name": "createRide",
      "outputs": [],
      "payable": false,
      "stateMutability": "nonpayable",
      "type": "function",
      "signature": "0xf5e6a7fb"
    },
    {
      "constant": false,
      "inputs": [
        {
          "name": "_id",
          "type": "uint256"
        }
      ],
      "name": "completeRide",
      "outputs": [],
      "payable": true,
      "stateMutability": "payable",
      "type": "function",
      "signature": "0xc416dd0b"
    }
  ],
  "bytecode": "0x6080604052600060015534801561001557600080fd5b506040805190810160405280600981526020017f726964657368617265000000000000000000000000000000000000000000000081525060009080519060200190610061929190610067565b5061010c565b828054600181600116156101000203166002900490600052602060002090601f016020900481019282601f106100a857805160ff19168380011785556100d6565b828001600101855582156100d6579182015b828111156100d55782518255916020019190600101906100ba565b5b5090506100e391906100e7565b5090565b61010991905b808211156101055760008160009055506001016100ed565b5090565b90565b610ef68061011b6000396000f3fe60806040526004361061006d576000357c0100000000000000000000000000000000000000000000000000000000900463ffffffff16806306fdde03146100725780633ec37e9014610102578063b47c18831461026a578063c416dd0b14610295578063f5e6a7fb146102c3575b600080fd5b34801561007e57600080fd5b50610087610436565b6040518080602001828103825283818151815260200191508051906020019080838360005b838110156100c75780820151818401526020810190506100ac565b50505050905090810190601f1680156100f45780820380516001836020036101000a031916815260200191505b509250505060405180910390f35b34801561010e57600080fd5b5061013b6004803603602081101561012557600080fd5b81019080803590602001909291905050506104d4565b6040518087815260200180602001806020018681526020018581526020018473ffffffffffffffffffffffffffffffffffffffff1673ffffffffffffffffffffffffffffffffffffffff168152602001838103835288818151815260200191508051906020019080838360005b838110156101c35780820151818401526020810190506101a8565b50505050905090810190601f1680156101f05780820380516001836020036101000a031916815260200191505b50838103825287818151815260200191508051906020019080838360005b8381101561022957808201518184015260208101905061020e565b50505050905090810190601f1680156102565780820380516001836020036101000a031916815260200191505b509850505050505050505060405180910390f35b34801561027657600080fd5b5061027f610660565b6040518082815260200191505060405180910390f35b6102c1600480360360208110156102ab57600080fd5b8101908080359060200190929190505050610666565b005b3480156102cf57600080fd5b50610434600480360360808110156102e657600080fd5b810190808035906020019064010000000081111561030357600080fd5b82018360208201111561031557600080fd5b8035906020019184600183028401116401000000008311171561033757600080fd5b91908080601f016020809104026020016040519081016040528093929190818152602001838380828437600081840152601f19601f8201169050808301925050505050505091929192908035906020019064010000000081111561039a57600080fd5b8201836020820111156103ac57600080fd5b803590602001918460018302840111640100000000831117156103ce57600080fd5b91908080601f016020809104026020016040519081016040528093929190818152602001838380828437600081840152601f19601f8201169050808301925050505050505091929192908035906020019092919080359060200190929190505050610b3d565b005b60008054600181600116156101000203166002900480601f0160208091040260200160405190810160405280929190818152602001828054600181600116156101000203166002900480156104cc5780601f106104a1576101008083540402835291602001916104cc565b820191906000526020600020905b8154815290600101906020018083116104af57829003601f168201915b505050505081565b6002602052806000526040600020600091509050806000015490806001018054600181600116156101000203166002900480601f0160208091040260200160405190810160405280929190818152602001828054600181600116156101000203166002900480156105865780601f1061055b57610100808354040283529160200191610586565b820191906000526020600020905b81548152906001019060200180831161056957829003601f168201915b505050505090806002018054600181600116156101000203166002900480601f0160208091040260200160405190810160405280929190818152602001828054600181600116156101000203166002900480156106245780601f106105f957610100808354040283529160200191610624565b820191906000526020600020905b81548152906001019060200180831161060757829003601f168201915b5050505050908060030154908060040154908060050160009054906101000a900473ffffffffffffffffffffffffffffffffffffffff16905086565b60015481565b61066e610dd8565b6002600083815260200190815260200160002060c0604051908101604052908160008201548152602001600182018054600181600116156101000203166002900480601f0160208091040260200160405190810160405280929190818152602001828054600181600116156101000203166002900480156107305780601f1061070557610100808354040283529160200191610730565b820191906000526020600020905b81548152906001019060200180831161071357829003601f168201915b50505050508152602001600282018054600181600116156101000203166002900480601f0160208091040260200160405190810160405280929190818152602001828054600181600116156101000203166002900480156107d25780601f106107a7576101008083540402835291602001916107d2565b820191906000526020600020905b8154815290600101906020018083116107b557829003601f168201915b5050505050815260200160038201548152602001600482015481526020016005820160009054906101000a900473ffffffffffffffffffffffffffffffffffffffff1673ffffffffffffffffffffffffffffffffffffffff1673ffffffffffffffffffffffffffffffffffffffff1681525050905060008160a0015190506000826000015111801561086a5750600154826000015111155b151561087557600080fd5b8160600151341015151561088857600080fd5b3373ffffffffffffffffffffffffffffffffffffffff168173ffffffffffffffffffffffffffffffffffffffff16141515156108c357600080fd5b6001826080015103826080018181525050816002600085815260200190815260200160002060008201518160000155602082015181600101908051906020019061090e929190610e25565b50604082015181600201908051906020019061092b929190610e25565b50606082015181600301556080820151816004015560a08201518160050160006101000a81548173ffffffffffffffffffffffffffffffffffffffff021916908373ffffffffffffffffffffffffffffffffffffffff1602179055509050508073ffffffffffffffffffffffffffffffffffffffff166108fc349081150290604051600060405180830381858888f193505050501580156109d0573d6000803e3d6000fd5b507f7c88787eafa0735bb9e2d35f47605f0ccfd06afb09ccc56d639f1b84499813c16001548360200151846040015185606001518660800151336040518087815260200180602001806020018681526020018581526020018473ffffffffffffffffffffffffffffffffffffffff1673ffffffffffffffffffffffffffffffffffffffff168152602001838103835288818151815260200191508051906020019080838360005b83811015610a92578082015181840152602081019050610a77565b50505050905090810190601f168015610abf5780820380516001836020036101000a031916815260200191505b50838103825287818151815260200191508051906020019080838360005b83811015610af8578082015181840152602081019050610add565b50505050905090810190601f168015610b255780820380516001836020036101000a031916815260200191505b509850505050505050505060405180910390a1505050565b60008451111515610b4d57600080fd5b60008351111515610b5d57600080fd5b600082111515610b6c57600080fd5b60016000815480929190600101919050555060c06040519081016040528060015481526020018581526020018481526020018381526020018281526020013373ffffffffffffffffffffffffffffffffffffffff16815250600260006001548152602001908152602001600020600082015181600001556020820151816001019080519060200190610bff929190610e25565b506040820151816002019080519060200190610c1c929190610e25565b50606082015181600301556080820151816004015560a08201518160050160006101000a81548173ffffffffffffffffffffffffffffffffffffffff021916908373ffffffffffffffffffffffffffffffffffffffff1602179055509050507f7dc1e5a228b4ce6e2b9e452f3ae88b7edd90be850ae05201728f1737f342fdc360015485858585336040518087815260200180602001806020018681526020018581526020018473ffffffffffffffffffffffffffffffffffffffff1673ffffffffffffffffffffffffffffffffffffffff168152602001838103835288818151815260200191508051906020019080838360005b83811015610d2c578082015181840152602081019050610d11565b50505050905090810190601f168015610d595780820380516001836020036101000a031916815260200191505b50838103825287818151815260200191508051906020019080838360005b83811015610d92578082015181840152602081019050610d77565b50505050905090810190601f168015610dbf5780820380516001836020036101000a031916815260200191505b509850505050505050505060405180910390a150505050565b60c0604051908101604052806000815260200160608152602001606081526020016000815260200160008152602001600073ffffffffffffffffffffffffffffffffffffffff1681525090565b828054600181600116156101000203166002900490600052602060002090601f016020900481019282601f10610e6657805160ff1916838001178555610e94565b82800160010185558215610e94579182015b82811115610e93578251825591602001919060010190610e78565b5b509050610ea19190610ea5565b5090565b610ec791905b80821115610ec3576000816000905550600101610eab565b5090565b9056fea165627a7a72305820a8cbac10f0f856847d35de36b2fa0f3a80c0ed534f8285dd817fd8405735e0d80029",
  "source": "pragma solidity ^0.5.0;\n\ncontract rideshare {\n    string public name;\n    uint public rideCount = 0;\n    mapping(uint => ride) public riders;\n\n    struct ride {\n        uint id;\n        string from;\n        string to;\n        uint fare;\n        uint seats;\n        address payable owner;\n    }\n\n    event rideAdded(\n        uint id,\n        string from,\n        string to,\n        uint fare,\n        uint seats,\n        address payable owner\n    );\n\n    event rideCompleted(\n        uint id,\n        string from,\n        string to, \n        uint fare,\n        uint seats,\n        address payable owner\n    );\n\n    constructor() public {\n        name = \"rideshare\";\n    }\n\n    function createRide(string memory _from, string memory _to, uint _price, uint _seats) public {\n        require(bytes(_from).length > 0);\n        require(bytes(_to).length > 0);\n        require(_price > 0);\n        rideCount ++;\n        riders[rideCount] = ride(rideCount, _from, _to, _price, _seats, msg.sender);\n        emit rideAdded(rideCount, _from, _to, _price, _seats, msg.sender);\n    }\n\n    function completeRide(uint _id) public payable {\n        // find the product\n        ride memory _ride = riders[_id];\n        // find the owner\n        address payable _rider = _ride.owner;\n        //validate id\n        require(_ride.id > 0 && _ride.id <= rideCount);\n        // check balance amt \n        require(msg.value >= _ride.fare);\n        //rider cannot purchase the ride\n        require(_rider != msg.sender);\n        //update seats\n        _ride.seats = _ride.seats-1;\n        // Update the ride\n        riders[_id] = _ride;\n        //pay the rider\n        address(_rider).transfer(msg.value);\n        // trigger the event\n        emit rideCompleted(rideCount, _ride.from, _ride.to, _ride.fare, _ride.seats, msg.sender);\n    }\n}",
  "sourcePath": "/Users/ashwinnambiar/Desktop/College/Final Year BlockChain/P2P_Rideshare/src/contracts/rideshare.sol",
  "compiler": {
    "name": "solc",
    "version": "0.5.0+commit.1d4f565a.Emscripten.clang"
  },
  "schemaVersion": "3.0.2",
  "updatedAt": "2022-02-26T12:18:01.109Z",
  "devdoc": {
    "methods": {}
  },
  "userdoc": {
    "methods": {}
  }
}